{
  "_format": "hh-sol-artifact-1",
  "contractName": "MegaCanvas",
  "sourceName": "contracts/MegaCanvas.sol",
  "abi": [
    {
      "inputs": [],
      "stateMutability": "nonpayable",
      "type": "constructor"
    },
    {
      "inputs": [],
      "name": "ArraysLengthMismatch",
      "type": "error"
    },
    {
      "inputs": [],
      "name": "InsufficientFee",
      "type": "error"
    },
    {
      "inputs": [],
      "name": "InvalidColor",
      "type": "error"
    },
    {
      "inputs": [],
      "name": "InvalidCoordinates",
      "type": "error"
    },
    {
      "inputs": [],
      "name": "Unauthorized",
      "type": "error"
    },
    {
      "anonymous": false,
      "inputs": [
        {
          "indexed": true,
          "internalType": "uint16",
          "name": "x",
          "type": "uint16"
        },
        {
          "indexed": true,
          "internalType": "uint16",
          "name": "y",
          "type": "uint16"
        },
        {
          "indexed": false,
          "internalType": "uint8",
          "name": "color",
          "type": "uint8"
        },
        {
          "indexed": true,
          "internalType": "address",
          "name": "painter",
          "type": "address"
        }
      ],
      "name": "PixelPainted",
      "type": "event"
    },
    {
      "inputs": [],
      "name": "CANVAS_SIZE",
      "outputs": [
        {
          "internalType": "uint16",
          "name": "",
          "type": "uint16"
        }
      ],
      "stateMutability": "view",
      "type": "function"
    },
    {
      "inputs": [],
      "name": "PIXEL_FEE",
      "outputs": [
        {
          "internalType": "uint256",
          "name": "",
          "type": "uint256"
        }
      ],
      "stateMutability": "view",
      "type": "function"
    },
    {
      "inputs": [
        {
          "internalType": "uint256",
          "name": "",
          "type": "uint256"
        }
      ],
      "name": "grid",
      "outputs": [
        {
          "internalType": "uint256",
          "name": "",
          "type": "uint256"
        }
      ],
      "stateMutability": "view",
      "type": "function"
    },
    {
      "inputs": [],
      "name": "owner",
      "outputs": [
        {
          "internalType": "address",
          "name": "",
          "type": "address"
        }
      ],
      "stateMutability": "view",
      "type": "function"
    },
    {
      "inputs": [
        {
          "internalType": "uint16",
          "name": "x",
          "type": "uint16"
        },
        {
          "internalType": "uint16",
          "name": "y",
          "type": "uint16"
        },
        {
          "internalType": "uint8",
          "name": "colorIndex",
          "type": "uint8"
        }
      ],
      "name": "paint",
      "outputs": [],
      "stateMutability": "payable",
      "type": "function"
    },
    {
      "inputs": [
        {
          "internalType": "uint16[]",
          "name": "xs",
          "type": "uint16[]"
        },
        {
          "internalType": "uint16[]",
          "name": "ys",
          "type": "uint16[]"
        },
        {
          "internalType": "uint8[]",
          "name": "colorIndexes",
          "type": "uint8[]"
        }
      ],
      "name": "paintBatch",
      "outputs": [],
      "stateMutability": "payable",
      "type": "function"
    },
    {
      "inputs": [
        {
          "internalType": "address",
          "name": "",
          "type": "address"
        }
      ],
      "name": "pixelCount",
      "outputs": [
        {
          "internalType": "uint256",
          "name": "",
          "type": "uint256"
        }
      ],
      "stateMutability": "view",
      "type": "function"
    },
    {
      "inputs": [],
      "name": "withdraw",
      "outputs": [],
      "stateMutability": "nonpayable",
      "type": "function"
    }
  ],
  "bytecode": "0x60a060405234801561001057600080fd5b503360805260805161091361003e6000396000818161016b015281816101dd015261025301526109136000f3fe60806040526004361061007b5760003560e01c80636960d8d61161004e5780636960d8d6146101035780636e6d1f571461012c5780638da5cb5b14610159578063a0043567146101b257600080fd5b80630360c5fd146100805780633ccfd60b146100ac57806351d2cc8f146100c3578063580ef1b5146100f0575b600080fd5b34801561008c57600080fd5b5061009964e8d4a5100081565b6040519081526020015b60405180910390f35b3480156100b857600080fd5b506100c16101c5565b005b3480156100cf57600080fd5b506100996100de366004610666565b60006020819052908152604090205481565b6100c16100fe3660046106a7565b610326565b34801561010f57600080fd5b5061011961040081565b60405161ffff90911681526020016100a3565b34801561013857600080fd5b506100996101473660046106ea565b60016020526000908152604090205481565b34801561016557600080fd5b5061018d7f000000000000000000000000000000000000000000000000000000000000000081565b60405173ffffffffffffffffffffffffffffffffffffffff90911681526020016100a3565b6100c16101c0366004610773565b610411565b3373ffffffffffffffffffffffffffffffffffffffff7f00000000000000000000000000000000000000000000000000000000000000001614610234576040517f82b4290000000000000000000000000000000000000000000000000000000000815260040160405180910390fd5b604051479060009073ffffffffffffffffffffffffffffffffffffffff7f0000000000000000000000000000000000000000000000000000000000000000169083908381818185875af1925050503d80600081146102ae576040519150601f19603f3d011682016040523d82523d6000602084013e6102b3565b606091505b5050905080610322576040517f08c379a000000000000000000000000000000000000000000000000000000000815260206004820152600f60248201527f5769746864726177206661696c65640000000000000000000000000000000000604482015260640160405180910390fd5b5050565b61040061ffff8416101580610341575061040061ffff831610155b1561035f5760405163179a054560e01b815260040160405180910390fd5b60108160ff161061038357604051631cf7e9c560e01b815260040160405180910390fd5b64e8d4a510003410156103a85760405162976f7560e21b815260040160405180910390fd5b6103b38383836105f0565b336000818152600160208181526040928390208054909201909155905160ff8416815261ffff85811692908716917f0b04b4a2a3653effb3ff47479e379d4fc283f17e2e5695bddd660c96ac6f42c1910160405180910390a4505050565b8483811415806104215750808214155b15610458576040517ffc23596000000000000000000000000000000000000000000000000000000000815260040160405180910390fd5b60006104698264e8d4a51000610823565b90508034101561048b5760405162976f7560e21b815260040160405180910390fd5b60005b828110156105d05760008989838181106104aa576104aa610840565b90506020020160208101906104bf9190610856565b905060008888848181106104d5576104d5610840565b90506020020160208101906104ea9190610856565b9050600087878581811061050057610500610840565b90506020020160208101906105159190610871565b905061040061ffff8416101580610532575061040061ffff831610155b156105505760405163179a054560e01b815260040160405180910390fd5b60108160ff161061057457604051631cf7e9c560e01b815260040160405180910390fd5b61057f8383836105f0565b60405160ff82168152339061ffff80851691908616907f0b04b4a2a3653effb3ff47479e379d4fc283f17e2e5695bddd660c96ac6f42c19060200160405180910390a483600101935050505061048e565b505033600090815260016020526040902080549091019055505050505050565b600061ffff8085169061060890610400908616610823565b610612919061088c565b905060006106216040836108b5565b905060006106306040846108c9565b61063b906004610823565b6000928352602083905260409092208054600f841b191660ff90951690921b93909317905550505050565b60006020828403121561067857600080fd5b5035919050565b803561ffff8116811461069157600080fd5b919050565b803560ff8116811461069157600080fd5b6000806000606084860312156106bc57600080fd5b6106c58461067f565b92506106d36020850161067f565b91506106e160408501610696565b90509250925092565b6000602082840312156106fc57600080fd5b813573ffffffffffffffffffffffffffffffffffffffff8116811461072057600080fd5b9392505050565b60008083601f84011261073957600080fd5b50813567ffffffffffffffff81111561075157600080fd5b6020830191508360208260051b850101111561076c57600080fd5b9250929050565b6000806000806000806060878903121561078c57600080fd5b863567ffffffffffffffff808211156107a457600080fd5b6107b08a838b01610727565b909850965060208901359150808211156107c957600080fd5b6107d58a838b01610727565b909650945060408901359150808211156107ee57600080fd5b506107fb89828a01610727565b979a9699509497509295939492505050565b634e487b7160e01b600052601160045260246000fd5b808202811582820484141761083a5761083a61080d565b92915050565b634e487b7160e01b600052603260045260246000fd5b60006020828403121561086857600080fd5b6107208261067f565b60006020828403121561088357600080fd5b61072082610696565b8082018082111561083a5761083a61080d565b634e487b7160e01b600052601260045260246000fd5b6000826108c4576108c461089f565b500490565b6000826108d8576108d861089f565b50069056fea26469706673582212209c715c426bac41a1c5a480f307ea8c1c5a363618482b62c09ab9a3a26864424e64736f6c63430008140033",
  "linkReferences": {},
  "deployedLinkReferences": {}
}